{
  "contractName": "Kittycontract",
  "abi": [
    {
      "anonymous": false,
      "inputs": [
        {
          "indexed": true,
          "internalType": "address",
          "name": "owner",
          "type": "address"
        },
        {
          "indexed": true,
          "internalType": "address",
          "name": "approved",
          "type": "address"
        },
        {
          "indexed": true,
          "internalType": "uint256",
          "name": "tokenId",
          "type": "uint256"
        }
      ],
      "name": "Approval",
      "type": "event"
    },
    {
      "anonymous": false,
      "inputs": [
        {
          "indexed": false,
          "internalType": "address",
          "name": "owner",
          "type": "address"
        },
        {
          "indexed": false,
          "internalType": "uint256",
          "name": "kittenId",
          "type": "uint256"
        },
        {
          "indexed": false,
          "internalType": "uint256",
          "name": "mumId",
          "type": "uint256"
        },
        {
          "indexed": false,
          "internalType": "uint256",
          "name": "dadId",
          "type": "uint256"
        },
        {
          "indexed": false,
          "internalType": "uint256",
          "name": "genes",
          "type": "uint256"
        }
      ],
      "name": "Birth",
      "type": "event"
    },
    {
      "anonymous": false,
      "inputs": [
        {
          "indexed": true,
          "internalType": "address",
          "name": "from",
          "type": "address"
        },
        {
          "indexed": true,
          "internalType": "address",
          "name": "to",
          "type": "address"
        },
        {
          "indexed": true,
          "internalType": "uint256",
          "name": "tokenId",
          "type": "uint256"
        }
      ],
      "name": "Transfer",
      "type": "event"
    },
    {
      "inputs": [],
      "name": "CREATION_LIMIT_GEN0",
      "outputs": [
        {
          "internalType": "uint256",
          "name": "",
          "type": "uint256"
        }
      ],
      "stateMutability": "view",
      "type": "function"
    },
    {
      "inputs": [],
      "name": "gen0Counter",
      "outputs": [
        {
          "internalType": "uint256",
          "name": "",
          "type": "uint256"
        }
      ],
      "stateMutability": "view",
      "type": "function"
    },
    {
      "inputs": [
        {
          "internalType": "uint256",
          "name": "",
          "type": "uint256"
        }
      ],
      "name": "kittyIndexToOwner",
      "outputs": [
        {
          "internalType": "address",
          "name": "",
          "type": "address"
        }
      ],
      "stateMutability": "view",
      "type": "function"
    },
    {
      "inputs": [],
      "name": "name",
      "outputs": [
        {
          "internalType": "string",
          "name": "",
          "type": "string"
        }
      ],
      "stateMutability": "view",
      "type": "function"
    },
    {
      "inputs": [],
      "name": "symbol",
      "outputs": [
        {
          "internalType": "string",
          "name": "",
          "type": "string"
        }
      ],
      "stateMutability": "view",
      "type": "function"
    },
    {
      "inputs": [
        {
          "internalType": "uint256",
          "name": "_genes",
          "type": "uint256"
        }
      ],
      "name": "createKittyGen0",
      "outputs": [
        {
          "internalType": "uint256",
          "name": "",
          "type": "uint256"
        }
      ],
      "stateMutability": "nonpayable",
      "type": "function"
    },
    {
      "inputs": [
        {
          "internalType": "uint256",
          "name": "kittyId",
          "type": "uint256"
        }
      ],
      "name": "getKitty",
      "outputs": [
        {
          "internalType": "uint256",
          "name": "",
          "type": "uint256"
        },
        {
          "internalType": "uint64",
          "name": "",
          "type": "uint64"
        },
        {
          "internalType": "uint32",
          "name": "",
          "type": "uint32"
        },
        {
          "internalType": "uint32",
          "name": "",
          "type": "uint32"
        },
        {
          "internalType": "uint16",
          "name": "",
          "type": "uint16"
        }
      ],
      "stateMutability": "view",
      "type": "function"
    },
    {
      "inputs": [
        {
          "internalType": "address",
          "name": "owner",
          "type": "address"
        }
      ],
      "name": "balanceOf",
      "outputs": [
        {
          "internalType": "uint256",
          "name": "balance",
          "type": "uint256"
        }
      ],
      "stateMutability": "view",
      "type": "function"
    },
    {
      "inputs": [],
      "name": "totalSupply",
      "outputs": [
        {
          "internalType": "uint256",
          "name": "",
          "type": "uint256"
        }
      ],
      "stateMutability": "view",
      "type": "function"
    },
    {
      "inputs": [
        {
          "internalType": "uint256",
          "name": "_tokenId",
          "type": "uint256"
        }
      ],
      "name": "ownerOf",
      "outputs": [
        {
          "internalType": "address",
          "name": "",
          "type": "address"
        }
      ],
      "stateMutability": "view",
      "type": "function"
    },
    {
      "inputs": [
        {
          "internalType": "address",
          "name": "_to",
          "type": "address"
        },
        {
          "internalType": "uint256",
          "name": "_tokenId",
          "type": "uint256"
        }
      ],
      "name": "transfer",
      "outputs": [],
      "stateMutability": "nonpayable",
      "type": "function"
    }
  ],
  "bytecode": "0x608060405234801561001057600080fd5b50336000806101000a81548173ffffffffffffffffffffffffffffffffffffffff021916908373ffffffffffffffffffffffffffffffffffffffff160217905550610f02806100606000396000f3fe608060405234801561001057600080fd5b50600436106100a95760003560e01c8063a45f4bfc11610071578063a45f4bfc14610168578063a9059cbb14610198578063b4834330146101b4578063d5a776ca146101d2578063e98b7f4d14610202578063ef5e94aa14610236576100a9565b806306fdde03146100ae57806318160ddd146100cc5780636352211e146100ea57806370a082311461011a57806395d89b411461014a575b600080fd5b6100b6610254565b6040516100c39190610aad565b60405180910390f35b6100d461028d565b6040516100e19190610ae8565b60405180910390f35b61010460048036038101906100ff9190610b34565b61029a565b6040516101119190610ba2565b60405180910390f35b610134600480360381019061012f9190610be9565b610379565b6040516101419190610ae8565b60405180910390f35b6101526103c2565b60405161015f9190610aad565b60405180910390f35b610182600480360381019061017d9190610b34565b6103fb565b60405161018f9190610ba2565b60405180910390f35b6101b260048036038101906101ad9190610c16565b61042e565b005b6101bc6104c3565b6040516101c99190610ae8565b60405180910390f35b6101ec60048036038101906101e79190610b34565b6104c8565b6040516101f99190610ae8565b60405180910390f35b61021c60048036038101906102179190610b34565b610560565b60405161022d959493929190610cb5565b60405180910390f35b61023e61067b565b60405161024b9190610ae8565b60405180910390f35b6040518060400160405280600b81526020017f4b6974747943726970746f00000000000000000000000000000000000000000081525081565b6000600180549050905090565b60008073ffffffffffffffffffffffffffffffffffffffff166002600084815260200190815260200160002060009054906101000a900473ffffffffffffffffffffffffffffffffffffffff1673ffffffffffffffffffffffffffffffffffffffff16141561033e576040517f08c379a000000000000000000000000000000000000000000000000000000000815260040161033590610d54565b60405180910390fd5b6002600083815260200190815260200160002060009054906101000a900473ffffffffffffffffffffffffffffffffffffffff169050919050565b6000600360008373ffffffffffffffffffffffffffffffffffffffff1673ffffffffffffffffffffffffffffffffffffffff168152602001908152602001600020549050919050565b6040518060400160405280600281526020017f4b4300000000000000000000000000000000000000000000000000000000000081525081565b60026020528060005260406000206000915054906101000a900473ffffffffffffffffffffffffffffffffffffffff1681565b600073ffffffffffffffffffffffffffffffffffffffff168273ffffffffffffffffffffffffffffffffffffffff16141561046857600080fd5b3073ffffffffffffffffffffffffffffffffffffffff168273ffffffffffffffffffffffffffffffffffffffff1614156104a157600080fd5b6104ab3382610681565b6104b457600080fd5b6104bf3383836106ed565b5050565b600a81565b60008060009054906101000a900473ffffffffffffffffffffffffffffffffffffffff1673ffffffffffffffffffffffffffffffffffffffff163373ffffffffffffffffffffffffffffffffffffffff161461052357600080fd5b600a6004541061053257600080fd5b6004600081548092919061054590610da3565b91905055506105596000806000853361087e565b9050919050565b60008060008060006001868154811061057c5761057b610dec565b5b906000526020600020906002020160000154600187815481106105a2576105a1610dec565b5b906000526020600020906002020160010160009054906101000a900467ffffffffffffffff16600188815481106105dc576105db610dec565b5b906000526020600020906002020160010160089054906101000a900463ffffffff166001898154811061061257610611610dec565b5b9060005260206000209060020201600101600c9054906101000a900463ffffffff1660018a8154811061064857610647610dec565b5b906000526020600020906002020160010160109054906101000a900461ffff169450945094509450945091939590929450565b60045481565b60008273ffffffffffffffffffffffffffffffffffffffff166002600084815260200190815260200160002060009054906101000a900473ffffffffffffffffffffffffffffffffffffffff1673ffffffffffffffffffffffffffffffffffffffff1614905092915050565b600360008373ffffffffffffffffffffffffffffffffffffffff1673ffffffffffffffffffffffffffffffffffffffff168152602001908152602001600020600081548092919061073d90610da3565b9190505550816002600083815260200190815260200160002060006101000a81548173ffffffffffffffffffffffffffffffffffffffff021916908373ffffffffffffffffffffffffffffffffffffffff160217905550600073ffffffffffffffffffffffffffffffffffffffff168373ffffffffffffffffffffffffffffffffffffffff161461081e57600360008473ffffffffffffffffffffffffffffffffffffffff1673ffffffffffffffffffffffffffffffffffffffff168152602001908152602001600020600081548092919061081890610e1b565b91905055505b808273ffffffffffffffffffffffffffffffffffffffff168473ffffffffffffffffffffffffffffffffffffffff167fddf252ad1be2c89b69c2b068fc378daa952ba7f163c4a11628f55a4df523b3ef60405160405180910390a4505050565b6000806040518060a001604052808567ffffffffffffffff1681526020014267ffffffffffffffff1681526020018863ffffffff1681526020018763ffffffff1681526020018661ffff16815250905060018190806001815401808255809150506001900390600052602060002090600202016000909190919091506000820151816000015560208201518160010160006101000a81548167ffffffffffffffff021916908367ffffffffffffffff16021790555060408201518160010160086101000a81548163ffffffff021916908363ffffffff160217905550606082015181600101600c6101000a81548163ffffffff021916908363ffffffff16021790555060808201518160010160106101000a81548161ffff021916908361ffff16021790555050506000600180805490506109b99190610e45565b90507f0a5311bd2a6608f08a180df2ee7c5946819a649b204b554bb8e39825b2c50ad584828a8a896040516109f2959493929190610e79565b60405180910390a1610a06600085836106ed565b809250505095945050505050565b600081519050919050565b600082825260208201905092915050565b60005b83811015610a4e578082015181840152602081019050610a33565b83811115610a5d576000848401525b50505050565b6000601f19601f8301169050919050565b6000610a7f82610a14565b610a898185610a1f565b9350610a99818560208601610a30565b610aa281610a63565b840191505092915050565b60006020820190508181036000830152610ac78184610a74565b905092915050565b6000819050919050565b610ae281610acf565b82525050565b6000602082019050610afd6000830184610ad9565b92915050565b600080fd5b610b1181610acf565b8114610b1c57600080fd5b50565b600081359050610b2e81610b08565b92915050565b600060208284031215610b4a57610b49610b03565b5b6000610b5884828501610b1f565b91505092915050565b600073ffffffffffffffffffffffffffffffffffffffff82169050919050565b6000610b8c82610b61565b9050919050565b610b9c81610b81565b82525050565b6000602082019050610bb76000830184610b93565b92915050565b610bc681610b81565b8114610bd157600080fd5b50565b600081359050610be381610bbd565b92915050565b600060208284031215610bff57610bfe610b03565b5b6000610c0d84828501610bd4565b91505092915050565b60008060408385031215610c2d57610c2c610b03565b5b6000610c3b85828601610bd4565b9250506020610c4c85828601610b1f565b9150509250929050565b600067ffffffffffffffff82169050919050565b610c7381610c56565b82525050565b600063ffffffff82169050919050565b610c9281610c79565b82525050565b600061ffff82169050919050565b610caf81610c98565b82525050565b600060a082019050610cca6000830188610ad9565b610cd76020830187610c6a565b610ce46040830186610c89565b610cf16060830185610c89565b610cfe6080830184610ca6565b9695505050505050565b7f6f776e65724f663a207a65726f20616464726573730000000000000000000000600082015250565b6000610d3e601583610a1f565b9150610d4982610d08565b602082019050919050565b60006020820190508181036000830152610d6d81610d31565b9050919050565b7f4e487b7100000000000000000000000000000000000000000000000000000000600052601160045260246000fd5b6000610dae82610acf565b91507fffffffffffffffffffffffffffffffffffffffffffffffffffffffffffffffff821415610de157610de0610d74565b5b600182019050919050565b7f4e487b7100000000000000000000000000000000000000000000000000000000600052603260045260246000fd5b6000610e2682610acf565b91506000821415610e3a57610e39610d74565b5b600182039050919050565b6000610e5082610acf565b9150610e5b83610acf565b925082821015610e6e57610e6d610d74565b5b828203905092915050565b600060a082019050610e8e6000830188610b93565b610e9b6020830187610ad9565b610ea86040830186610ad9565b610eb56060830185610ad9565b610ec26080830184610ad9565b969550505050505056fea2646970667358221220ee4de2e3851e6643beeb2760393ec44b3c60d23b4224e9cbf0878d31afdabc8064736f6c634300080b0033",
  "immutableReferences": {},
  "source": "// SPDX-License-Identifier: MIT\npragma solidity >=0.4.22 <0.9.0;\n\nimport \"./IERC721.sol\";\nimport \"./Ownable.sol\";\n\ncontract Kittycontract is IERC721, Ownable {\n\n    uint256 public constant CREATION_LIMIT_GEN0 = 10;\n    string public constant name = \"KittyCripto\";\n    string public constant symbol = \"KC\";\n\n    event Birth(\n    address owner, \n    uint256 kittenId,\n    uint256 mumId, \n    uint256 dadId, \n    uint256 genes\n    );\n\n    struct Kitty {\n        uint256 genes;\n        uint64 birthTime;\n        uint32 mumId;\n        uint32 dadId;\n        uint16 generation;\n    }\n\n   //Arrays of token Ids\n   Kitty[] kitties;\n\n    mapping (uint256 => address) public kittyIndexToOwner;\n    mapping (address => uint256) ownershipTokenCount;\n\n    uint256 public gen0Counter;\n\n    function createKittyGen0(uint256 _genes) public onlyOwner returns (uint256) {\n        require(gen0Counter < CREATION_LIMIT_GEN0);\n\n        gen0Counter++;\n        \n        return _createKitty(0, 0, 0, _genes, msg.sender);\n    }\n\n    function _createKitty(\n        uint256 _mumId,\n        uint256 _dadId,\n        uint256 _generation,\n        uint256 _genes,\n        address owner \n        \n    ) private returns (uint256) {\n        Kitty memory _kitty = Kitty({ \n            genes: uint64(_genes),\n            birthTime: uint64(block.timestamp),\n            mumId: uint32(_mumId),\n            dadId: uint32(_dadId),\n            generation: uint16(_generation)\n        });\n     \n        kitties.push(_kitty);\n        uint256 newKittenId = kitties.length -1; \n\n        emit Birth(owner, newKittenId, _mumId, _dadId, _genes);\n \n        _transfer(address(0), owner, newKittenId);\n    \n        return newKittenId; \n    }\n    function getKitty(uint256 kittyId) public view returns(uint256, uint64, uint32, uint32, uint16) {\n        return \n        (\n        kitties[kittyId].genes, \n        kitties[kittyId].birthTime, \n        kitties[kittyId].mumId, \n        kitties[kittyId].dadId,\n        kitties[kittyId].generation\n        );\n    }\n    function balanceOf(address owner) external  override view returns (uint256 balance) {\n    return ownershipTokenCount[owner];\n        \n    }\n\n    function totalSupply() external view returns (uint) {\n        return kitties.length;\n    }\n  \n\n    function ownerOf(uint256 _tokenId) external view returns (address) {\n        require(kittyIndexToOwner[_tokenId] != address(0), \"ownerOf: zero address\");\n           return kittyIndexToOwner[_tokenId];\n\n      \n    }\n\n    function transfer(address _to, uint256 _tokenId) external override {\n    \n\n        require (_to != address(0));\n        require (_to != address(this));\n        require (_owns(msg.sender,_tokenId));\n\n        _transfer(msg.sender, _to, _tokenId);\n    }\n    function _transfer(address _from, address _to, uint256 _tokenId) internal {\n        ownershipTokenCount[_to]++;\n    \n    kittyIndexToOwner[_tokenId] = _to;\n\n    if (_from != address (0)) {\n        ownershipTokenCount[_from]--;\n    }\n\n    //Emit the transfer events\n    emit Transfer(_from, _to, _tokenId); \n\n    }\n\n    function _owns(address _claimant, uint256 _tokenId) internal view returns (bool) {\n        return kittyIndexToOwner[_tokenId] == _claimant;\n    }\n    \n }\n\n\n",
  "sourcePath": "/Users/hermevillaparedes/academy-kitties-template/contracts/Kittycontract.sol",
  "compiler": {
    "name": "solc",
    "version": "0.8.11+commit.d7f03943.Emscripten.clang"
  },
  "schemaVersion": "3.4.4",
  "updatedAt": "2022-06-17T00:44:20.858Z",
  "devdoc": {
    "kind": "dev",
    "methods": {
      "balanceOf(address)": {
        "details": "Returns the number of tokens in ``owner``'s account."
      }
    },
    "version": 1
  },
  "userdoc": {
    "kind": "user",
    "methods": {},
    "version": 1
  }
}